{"contracts/RingsEnhanced.sol":{"RingsEnhanced":{"abi":[{"anonymous":false,"inputs":[{"indexed":true,"internalType":"uint256","name":"ringId","type":"uint256"},{"indexed":true,"internalType":"address","name":"player","type":"address"}],"name":"PlayerJoined","type":"event"},{"anonymous":false,"inputs":[{"indexed":true,"internalType":"uint256","name":"ringId","type":"uint256"},{"indexed":true,"internalType":"address","name":"creator","type":"address"},{"indexed":false,"internalType":"uint256","name":"buyIn","type":"uint256"},{"indexed":false,"internalType":"uint256","name":"maxPlayers","type":"uint256"}],"name":"RingCreated","type":"event"},{"anonymous":false,"inputs":[{"indexed":true,"internalType":"uint256","name":"ringId","type":"uint256"},{"indexed":true,"internalType":"address","name":"creator","type":"address"}],"name":"RingEnded","type":"event"},{"anonymous":false,"inputs":[{"indexed":true,"internalType":"uint256","name":"ringId","type":"uint256"},{"indexed":true,"internalType":"address","name":"winner","type":"address"},{"indexed":false,"internalType":"uint256","name":"prize","type":"uint256"}],"name":"WinnerDeclared","type":"event"},{"inputs":[{"internalType":"uint256","name":"_maxPlayers","type":"uint256"}],"name":"createRing","outputs":[],"stateMutability":"payable","type":"function"},{"inputs":[{"internalType":"uint256","name":"_ringId","type":"uint256"}],"name":"endRing","outputs":[],"stateMutability":"nonpayable","type":"function"},{"inputs":[{"internalType":"uint256","name":"_ringId","type":"uint256"}],"name":"getRing","outputs":[{"internalType":"uint256","name":"id","type":"uint256"},{"internalType":"address","name":"creator","type":"address"},{"internalType":"uint256","name":"buyIn","type":"uint256"},{"internalType":"uint256","name":"maxPlayers","type":"uint256"},{"internalType":"address[]","name":"players","type":"address[]"},{"internalType":"bool","name":"isActive","type":"bool"},{"internalType":"address","name":"winner","type":"address"},{"internalType":"uint256","name":"totalPot","type":"uint256"}],"stateMutability":"view","type":"function"},{"inputs":[{"internalType":"uint256","name":"_ringId","type":"uint256"}],"name":"getRingPlayers","outputs":[{"internalType":"address[]","name":"","type":"address[]"}],"stateMutability":"view","type":"function"},{"inputs":[{"internalType":"uint256","name":"","type":"uint256"},{"internalType":"address","name":"","type":"address"}],"name":"hasJoined","outputs":[{"internalType":"bool","name":"","type":"bool"}],"stateMutability":"view","type":"function"},{"inputs":[{"internalType":"uint256","name":"_ringId","type":"uint256"}],"name":"joinRing","outputs":[],"stateMutability":"payable","type":"function"},{"inputs":[],"name":"nextRingId","outputs":[{"internalType":"uint256","name":"","type":"uint256"}],"stateMutability":"view","type":"function"},{"inputs":[{"internalType":"uint256","name":"","type":"uint256"}],"name":"rings","outputs":[{"internalType":"uint256","name":"id","type":"uint256"},{"internalType":"address","name":"creator","type":"address"},{"internalType":"uint256","name":"buyIn","type":"uint256"},{"internalType":"uint256","name":"maxPlayers","type":"uint256"},{"internalType":"bool","name":"isActive","type":"bool"},{"internalType":"address","name":"winner","type":"address"},{"internalType":"uint256","name":"totalPot","type":"uint256"}],"stateMutability":"view","type":"function"},{"inputs":[{"internalType":"uint256","name":"_ringId","type":"uint256"},{"internalType":"address","name":"_user","type":"address"}],"name":"userHasJoined","outputs":[{"internalType":"bool","name":"","type":"bool"}],"stateMutability":"view","type":"function"},{"stateMutability":"payable","type":"receive"}],"evm":{"bytecode":{"linkReferences":{},"object":"608060405234801561001057600080fd5b50610c3a806100206000396000f3fe6080604052600436106100895760003560e01c80637e639ceb116100595780637e639ceb1461013e578063a41e3ac11461016b578063ba126bad1461018b578063c08a5dd51461019e578063fb29885d146101d257600080fd5b8062df2085146100955780631ec31417146100be578063630bb7d3146100ee578063681947191461010357600080fd5b3661009057005b600080fd5b3480156100a157600080fd5b506100ab60005481565b6040519081526020015b60405180910390f35b3480156100ca57600080fd5b506100de6100d9366004610a2e565b61027a565b60405190151581526020016100b5565b6101016100fc366004610a6a565b6102a7565b005b34801561010f57600080fd5b506100de61011e366004610a2e565b600260209081526000928352604080842090915290825290205460ff1681565b34801561014a57600080fd5b5061015e610159366004610a6a565b610482565b6040516100b59190610ac7565b34801561017757600080fd5b50610101610186366004610a6a565b6104f1565b610101610199366004610a6a565b610627565b3480156101aa57600080fd5b506101be6101b9366004610a6a565b6107d4565b6040516100b5989796959493929190610ae1565b3480156101de57600080fd5b506102396101ed366004610a6a565b60016020819052600091825260409091208054918101546002820154600383015460058401546006909401546001600160a01b03938416949293919260ff811692610100909104169087565b604080519788526001600160a01b03968716602089015287019490945260608601929092521515608085015290911660a083015260c082015260e0016100b5565b60008281526002602090815260408083206001600160a01b038516845290915290205460ff165b92915050565b6000818152600160205260409020600581015460ff166103005760405162461bcd60e51b815260206004820152600f60248201526e52696e67206e6f742061637469766560881b60448201526064015b60405180910390fd5b806002015434146103535760405162461bcd60e51b815260206004820152601760248201527f496e636f7272656374206275792d696e20616d6f756e7400000000000000000060448201526064016102f7565b60038101546004820154106103965760405162461bcd60e51b8152602060048201526009602482015268149a5b99c8199d5b1b60ba1b60448201526064016102f7565b600082815260026020908152604080832033845290915290205460ff16156103f15760405162461bcd60e51b815260206004820152600e60248201526d105b1c9958591e481a9bda5b995960921b60448201526064016102f7565b6004810180546001810182556000918252602082200180546001600160a01b0319163317905560068201805434929061042b908490610b4c565b90915550506000828152600260209081526040808320338085529252808320805460ff1916600117905551909184917f87969bc7faf902221a147b95ceba76e011c5efb0339a0a8ee7a2bb82d9cfbbd69190a35050565b6000818152600160209081526040918290206004018054835181840281018401909452808452606093928301828280156104e557602002820191906000526020600020905b81546001600160a01b031681526001909101906020018083116104c7575b50505050509050919050565b6000818152600160205260409020600581015460ff166105455760405162461bcd60e51b815260206004820152600f60248201526e52696e67206e6f742061637469766560881b60448201526064016102f7565b60018101546001600160a01b031633146105985760405162461bcd60e51b815260206004820152601460248201527313db9b1e4818dc99585d1bdc8818d85b88195b9960621b60448201526064016102f7565b6004810154600211156105ed5760405162461bcd60e51b815260206004820152601760248201527f4e656564206174206c65617374203220706c617965727300000000000000000060448201526064016102f7565b6105f6826108a9565b604051339083907f983dfeea14503670ff3224a321e526575722f9a2a3755ecd963a43260c94b4c190600090a35050565b600281101580156106395750600a8111155b6106855760405162461bcd60e51b815260206004820152601c60248201527f506c6179657273206d757374206265206265747765656e20322d31300000000060448201526064016102f7565b600034116106c75760405162461bcd60e51b815260206004820152600f60248201526e109d5e4b5a5b881c995c5d5a5c9959608a1b60448201526064016102f7565b600080548082526001602081815260408085209384558383018054336001600160a01b03199182168117909255346002808801829055600388018a905560058801805460ff19908116891790915560068901839055600489018054808a018255908b52878b2001805490941685179093558854895285528388208389528552838820805490921690951790559454815193845291830186905292939290917ffd9273d4455f230cb82ea076df3e088329262df8f16c0fcc76291b90292fa952910160405180910390a36000805460405133927f87969bc7faf902221a147b95ceba76e011c5efb0339a0a8ee7a2bb82d9cfbbd691a36000805490806107cb83610b5f565b91905055505050565b600081815260016020818152604080842080549381015460028201546003830154600584015460068501546004860180548851818b0281018b019099528089528b9a8b9a8b9a60609a8c9a8b9a8b9a929995986001600160a01b039283169891979396919560ff83169561010090930490931693909286919083018282801561088657602002820191906000526020600020905b81546001600160a01b03168152600190910190602001808311610868575b505050505093509850985098509850985098509850985050919395975091939597565b600081815260016020908152604080832060048101805492519194936108d792429244929091899101610b78565b6040516020818303038152906040528051906020012060001c6108fa9190610bcc565b9050600082600401828154811061091357610913610bee565b60009182526020822001546005850180546001600160a81b0319166101006001600160a01b0390931692830260ff1916179055600685015460405191935091908390839060006040518083038185875af1925050503d8060008114610994576040519150601f19603f3d011682016040523d82523d6000602084013e610999565b606091505b50509050806109e25760405162461bcd60e51b8152602060048201526015602482015274141c9a5e99481d1c985b9cd9995c8819985a5b1959605a1b60448201526064016102f7565b826001600160a01b0316867f7ed5face07afb2b0e99df53523951350d2a3d4f5d105a0dd2110703efe39953784604051610a1e91815260200190565b60405180910390a3505050505050565b60008060408385031215610a4157600080fd5b8235915060208301356001600160a01b0381168114610a5f57600080fd5b809150509250929050565b600060208284031215610a7c57600080fd5b5035919050565b600081518084526020808501945080840160005b83811015610abc5781516001600160a01b031687529582019590820190600101610a97565b509495945050505050565b602081526000610ada6020830184610a83565b9392505050565b60006101008a835260018060a01b03808b166020850152896040850152886060850152816080850152610b1682850189610a83565b96151560a08501529490941660c08301525060e001525095945050505050565b634e487b7160e01b600052601160045260246000fd5b808201808211156102a1576102a1610b36565b600060018201610b7157610b71610b36565b5060010190565b848152600060208581840152604083018554866000528260002060005b82811015610bba5781546001600160a01b031684529284019260019182019101610b95565b50505093845290920195945050505050565b600082610be957634e487b7160e01b600052601260045260246000fd5b500690565b634e487b7160e01b600052603260045260246000fdfea26469706673582212209e92d27c8723af21177222d3858899adad6fe4b78112f26dc472753c30a1ad3a64736f6c63430008140033","opcodes":"PUSH1 0x80 PUSH1 0x40 MSTORE CALLVALUE DUP1 ISZERO PUSH2 0x10 JUMPI PUSH1 0x0 DUP1 REVERT JUMPDEST POP PUSH2 0xC3A DUP1 PUSH2 0x20 PUSH1 0x0 CODECOPY PUSH1 0x0 RETURN INVALID PUSH1 0x80 PUSH1 0x40 MSTORE PUSH1 0x4 CALLDATASIZE LT PUSH2 0x89 JUMPI PUSH1 0x0 CALLDATALOAD PUSH1 0xE0 SHR DUP1 PUSH4 0x7E639CEB GT PUSH2 0x59 JUMPI DUP1 PUSH4 0x7E639CEB EQ PUSH2 0x13E JUMPI DUP1 PUSH4 0xA41E3AC1 EQ PUSH2 0x16B JUMPI DUP1 PUSH4 0xBA126BAD EQ PUSH2 0x18B JUMPI DUP1 PUSH4 0xC08A5DD5 EQ PUSH2 0x19E JUMPI DUP1 PUSH4 0xFB29885D EQ PUSH2 0x1D2 JUMPI PUSH1 0x0 DUP1 REVERT JUMPDEST DUP1 PUSH3 0xDF2085 EQ PUSH2 0x95 JUMPI DUP1 PUSH4 0x1EC31417 EQ PUSH2 0xBE JUMPI DUP1 PUSH4 0x630BB7D3 EQ PUSH2 0xEE JUMPI DUP1 PUSH4 0x68194719 EQ PUSH2 0x103 JUMPI PUSH1 0x0 DUP1 REVERT JUMPDEST CALLDATASIZE PUSH2 0x90 JUMPI STOP JUMPDEST PUSH1 0x0 DUP1 REVERT JUMPDEST CALLVALUE DUP1 ISZERO PUSH2 0xA1 JUMPI PUSH1 0x0 DUP1 REVERT JUMPDEST POP PUSH2 0xAB PUSH1 0x0 SLOAD DUP2 JUMP JUMPDEST PUSH1 0x40 MLOAD SWAP1 DUP2 MSTORE PUSH1 0x20 ADD JUMPDEST PUSH1 0x40 MLOAD DUP1 SWAP2 SUB SWAP1 RETURN JUMPDEST CALLVALUE DUP1 ISZERO PUSH2 0xCA JUMPI PUSH1 0x0 DUP1 REVERT JUMPDEST POP PUSH2 0xDE PUSH2 0xD9 CALLDATASIZE PUSH1 0x4 PUSH2 0xA2E JUMP JUMPDEST PUSH2 0x27A JUMP JUMPDEST PUSH1 0x40 MLOAD SWAP1 ISZERO ISZERO DUP2 MSTORE PUSH1 0x20 ADD PUSH2 0xB5 JUMP JUMPDEST PUSH2 0x101 PUSH2 0xFC CALLDATASIZE PUSH1 0x4 PUSH2 0xA6A JUMP JUMPDEST PUSH2 0x2A7 JUMP JUMPDEST STOP JUMPDEST CALLVALUE DUP1 ISZERO PUSH2 0x10F JUMPI PUSH1 0x0 DUP1 REVERT JUMPDEST POP PUSH2 0xDE PUSH2 0x11E CALLDATASIZE PUSH1 0x4 PUSH2 0xA2E JUMP JUMPDEST PUSH1 0x2 PUSH1 0x20 SWAP1 DUP2 MSTORE PUSH1 0x0 SWAP3 DUP4 MSTORE PUSH1 0x40 DUP1 DUP5 KECCAK256 SWAP1 SWAP2 MSTORE SWAP1 DUP3 MSTORE SWAP1 KECCAK256 SLOAD PUSH1 0xFF AND DUP2 JUMP JUMPDEST CALLVALUE DUP1 ISZERO PUSH2 0x14A JUMPI PUSH1 0x0 DUP1 REVERT JUMPDEST POP PUSH2 0x15E PUSH2 0x159 CALLDATASIZE PUSH1 0x4 PUSH2 0xA6A JUMP JUMPDEST PUSH2 0x482 JUMP JUMPDEST PUSH1 0x40 MLOAD PUSH2 0xB5 SWAP2 SWAP1 PUSH2 0xAC7 JUMP JUMPDEST CALLVALUE DUP1 ISZERO PUSH2 0x177 JUMPI PUSH1 0x0 DUP1 REVERT JUMPDEST POP PUSH2 0x101 PUSH2 0x186 CALLDATASIZE PUSH1 0x4 PUSH2 0xA6A JUMP JUMPDEST PUSH2 0x4F1 JUMP JUMPDEST PUSH2 0x101 PUSH2 0x199 CALLDATASIZE PUSH1 0x4 PUSH2 0xA6A JUMP JUMPDEST PUSH2 0x627 JUMP JUMPDEST CALLVALUE DUP1 ISZERO PUSH2 0x1AA JUMPI PUSH1 0x0 DUP1 REVERT JUMPDEST POP PUSH2 0x1BE PUSH2 0x1B9 CALLDATASIZE PUSH1 0x4 PUSH2 0xA6A JUMP JUMPDEST PUSH2 0x7D4 JUMP JUMPDEST PUSH1 0x40 MLOAD PUSH2 0xB5 SWAP9 SWAP8 SWAP7 SWAP6 SWAP5 SWAP4 SWAP3 SWAP2 SWAP1 PUSH2 0xAE1 JUMP JUMPDEST CALLVALUE DUP1 ISZERO PUSH2 0x1DE JUMPI PUSH1 0x0 DUP1 REVERT JUMPDEST POP PUSH2 0x239 PUSH2 0x1ED CALLDATASIZE PUSH1 0x4 PUSH2 0xA6A JUMP JUMPDEST PUSH1 0x1 PUSH1 0x20 DUP2 SWAP1 MSTORE PUSH1 0x0 SWAP2 DUP3 MSTORE PUSH1 0x40 SWAP1 SWAP2 KECCAK256 DUP1 SLOAD SWAP2 DUP2 ADD SLOAD PUSH1 0x2 DUP3 ADD SLOAD PUSH1 0x3 DUP4 ADD SLOAD PUSH1 0x5 DUP5 ADD SLOAD PUSH1 0x6 SWAP1 SWAP5 ADD SLOAD PUSH1 0x1 PUSH1 0x1 PUSH1 0xA0 SHL SUB SWAP4 DUP5 AND SWAP5 SWAP3 SWAP4 SWAP2 SWAP3 PUSH1 0xFF DUP2 AND SWAP3 PUSH2 0x100 SWAP1 SWAP2 DIV AND SWAP1 DUP8 JUMP JUMPDEST PUSH1 0x40 DUP1 MLOAD SWAP8 DUP9 MSTORE PUSH1 0x1 PUSH1 0x1 PUSH1 0xA0 SHL SUB SWAP7 DUP8 AND PUSH1 0x20 DUP10 ADD MSTORE DUP8 ADD SWAP5 SWAP1 SWAP5 MSTORE PUSH1 0x60 DUP7 ADD SWAP3 SWAP1 SWAP3 MSTORE ISZERO ISZERO PUSH1 0x80 DUP6 ADD MSTORE SWAP1 SWAP2 AND PUSH1 0xA0 DUP4 ADD MSTORE PUSH1 0xC0 DUP3 ADD MSTORE PUSH1 0xE0 ADD PUSH2 0xB5 JUMP JUMPDEST PUSH1 0x0 DUP3 DUP2 MSTORE PUSH1 0x2 PUSH1 0x20 SWAP1 DUP2 MSTORE PUSH1 0x40 DUP1 DUP4 KECCAK256 PUSH1 0x1 PUSH1 0x1 PUSH1 0xA0 SHL SUB DUP6 AND DUP5 MSTORE SWAP1 SWAP2 MSTORE SWAP1 KECCAK256 SLOAD PUSH1 0xFF AND JUMPDEST SWAP3 SWAP2 POP POP JUMP JUMPDEST PUSH1 0x0 DUP2 DUP2 MSTORE PUSH1 0x1 PUSH1 0x20 MSTORE PUSH1 0x40 SWAP1 KECCAK256 PUSH1 0x5 DUP2 ADD SLOAD PUSH1 0xFF AND PUSH2 0x300 JUMPI PUSH1 0x40 MLOAD PUSH3 0x461BCD PUSH1 0xE5 SHL DUP2 MSTORE PUSH1 0x20 PUSH1 0x4 DUP3 ADD MSTORE PUSH1 0xF PUSH1 0x24 DUP3 ADD MSTORE PUSH15 0x52696E67206E6F7420616374697665 PUSH1 0x88 SHL PUSH1 0x44 DUP3 ADD MSTORE PUSH1 0x64 ADD JUMPDEST PUSH1 0x40 MLOAD DUP1 SWAP2 SUB SWAP1 REVERT JUMPDEST DUP1 PUSH1 0x2 ADD SLOAD CALLVALUE EQ PUSH2 0x353 JUMPI PUSH1 0x40 MLOAD PUSH3 0x461BCD PUSH1 0xE5 SHL DUP2 MSTORE PUSH1 0x20 PUSH1 0x4 DUP3 ADD MSTORE PUSH1 0x17 PUSH1 0x24 DUP3 ADD MSTORE PUSH32 0x496E636F7272656374206275792D696E20616D6F756E74000000000000000000 PUSH1 0x44 DUP3 ADD MSTORE PUSH1 0x64 ADD PUSH2 0x2F7 JUMP JUMPDEST PUSH1 0x3 DUP2 ADD SLOAD PUSH1 0x4 DUP3 ADD SLOAD LT PUSH2 0x396 JUMPI PUSH1 0x40 MLOAD PUSH3 0x461BCD PUSH1 0xE5 SHL DUP2 MSTORE PUSH1 0x20 PUSH1 0x4 DUP3 ADD MSTORE PUSH1 0x9 PUSH1 0x24 DUP3 ADD MSTORE PUSH9 0x149A5B99C8199D5B1B PUSH1 0xBA SHL PUSH1 0x44 DUP3 ADD MSTORE PUSH1 0x64 ADD PUSH2 0x2F7 JUMP JUMPDEST PUSH1 0x0 DUP3 DUP2 MSTORE PUSH1 0x2 PUSH1 0x20 SWAP1 DUP2 MSTORE PUSH1 0x40 DUP1 DUP4 KECCAK256 CALLER DUP5 MSTORE SWAP1 SWAP2 MSTORE SWAP1 KECCAK256 SLOAD PUSH1 0xFF AND ISZERO PUSH2 0x3F1 JUMPI PUSH1 0x40 MLOAD PUSH3 0x461BCD PUSH1 0xE5 SHL DUP2 MSTORE PUSH1 0x20 PUSH1 0x4 DUP3 ADD MSTORE PUSH1 0xE PUSH1 0x24 DUP3 ADD MSTORE PUSH14 0x105B1C9958591E481A9BDA5B9959 PUSH1 0x92 SHL PUSH1 0x44 DUP3 ADD MSTORE PUSH1 0x64 ADD PUSH2 0x2F7 JUMP JUMPDEST PUSH1 0x4 DUP2 ADD DUP1 SLOAD PUSH1 0x1 DUP2 ADD DUP3 SSTORE PUSH1 0x0 SWAP2 DUP3 MSTORE PUSH1 0x20 DUP3 KECCAK256 ADD DUP1 SLOAD PUSH1 0x1 PUSH1 0x1 PUSH1 0xA0 SHL SUB NOT AND CALLER OR SWAP1 SSTORE PUSH1 0x6 DUP3 ADD DUP1 SLOAD CALLVALUE SWAP3 SWAP1 PUSH2 0x42B SWAP1 DUP5 SWAP1 PUSH2 0xB4C JUMP JUMPDEST SWAP1 SWAP2 SSTORE POP POP PUSH1 0x0 DUP3 DUP2 MSTORE PUSH1 0x2 PUSH1 0x20 SWAP1 DUP2 MSTORE PUSH1 0x40 DUP1 DUP4 KECCAK256 CALLER DUP1 DUP6 MSTORE SWAP3 MSTORE DUP1 DUP4 KECCAK256 DUP1 SLOAD PUSH1 0xFF NOT AND PUSH1 0x1 OR SWAP1 SSTORE MLOAD SWAP1 SWAP2 DUP5 SWAP2 PUSH32 0x87969BC7FAF902221A147B95CEBA76E011C5EFB0339A0A8EE7A2BB82D9CFBBD6 SWAP2 SWAP1 LOG3 POP POP JUMP JUMPDEST PUSH1 0x0 DUP2 DUP2 MSTORE PUSH1 0x1 PUSH1 0x20 SWAP1 DUP2 MSTORE PUSH1 0x40 SWAP2 DUP3 SWAP1 KECCAK256 PUSH1 0x4 ADD DUP1 SLOAD DUP4 MLOAD DUP2 DUP5 MUL DUP2 ADD DUP5 ADD SWAP1 SWAP5 MSTORE DUP1 DUP5 MSTORE PUSH1 0x60 SWAP4 SWAP3 DUP4 ADD DUP3 DUP3 DUP1 ISZERO PUSH2 0x4E5 JUMPI PUSH1 0x20 MUL DUP3 ADD SWAP2 SWAP1 PUSH1 0x0 MSTORE PUSH1 0x20 PUSH1 0x0 KECCAK256 SWAP1 JUMPDEST DUP2 SLOAD PUSH1 0x1 PUSH1 0x1 PUSH1 0xA0 SHL SUB AND DUP2 MSTORE PUSH1 0x1 SWAP1 SWAP2 ADD SWAP1 PUSH1 0x20 ADD DUP1 DUP4 GT PUSH2 0x4C7 JUMPI JUMPDEST POP POP POP POP POP SWAP1 POP SWAP2 SWAP1 POP JUMP JUMPDEST PUSH1 0x0 DUP2 DUP2 MSTORE PUSH1 0x1 PUSH1 0x20 MSTORE PUSH1 0x40 SWAP1 KECCAK256 PUSH1 0x5 DUP2 ADD SLOAD PUSH1 0xFF AND PUSH2 0x545 JUMPI PUSH1 0x40 MLOAD PUSH3 0x461BCD PUSH1 0xE5 SHL DUP2 MSTORE PUSH1 0x20 PUSH1 0x4 DUP3 ADD MSTORE PUSH1 0xF PUSH1 0x24 DUP3 ADD MSTORE PUSH15 0x52696E67206E6F7420616374697665 PUSH1 0x88 SHL PUSH1 0x44 DUP3 ADD MSTORE PUSH1 0x64 ADD PUSH2 0x2F7 JUMP JUMPDEST PUSH1 0x1 DUP2 ADD SLOAD PUSH1 0x1 PUSH1 0x1 PUSH1 0xA0 SHL SUB AND CALLER EQ PUSH2 0x598 JUMPI PUSH1 0x40 MLOAD PUSH3 0x461BCD PUSH1 0xE5 SHL DUP2 MSTORE PUSH1 0x20 PUSH1 0x4 DUP3 ADD MSTORE PUSH1 0x14 PUSH1 0x24 DUP3 ADD MSTORE PUSH20 0x13DB9B1E4818DC99585D1BDC8818D85B88195B99 PUSH1 0x62 SHL PUSH1 0x44 DUP3 ADD MSTORE PUSH1 0x64 ADD PUSH2 0x2F7 JUMP JUMPDEST PUSH1 0x4 DUP2 ADD SLOAD PUSH1 0x2 GT ISZERO PUSH2 0x5ED JUMPI PUSH1 0x40 MLOAD PUSH3 0x461BCD PUSH1 0xE5 SHL DUP2 MSTORE PUSH1 0x20 PUSH1 0x4 DUP3 ADD MSTORE PUSH1 0x17 PUSH1 0x24 DUP3 ADD MSTORE PUSH32 0x4E656564206174206C65617374203220706C6179657273000000000000000000 PUSH1 0x44 DUP3 ADD MSTORE PUSH1 0x64 ADD PUSH2 0x2F7 JUMP JUMPDEST PUSH2 0x5F6 DUP3 PUSH2 0x8A9 JUMP JUMPDEST PUSH1 0x40 MLOAD CALLER SWAP1 DUP4 SWAP1 PUSH32 0x983DFEEA14503670FF3224A321E526575722F9A2A3755ECD963A43260C94B4C1 SWAP1 PUSH1 0x0 SWAP1 LOG3 POP POP JUMP JUMPDEST PUSH1 0x2 DUP2 LT ISZERO DUP1 ISZERO PUSH2 0x639 JUMPI POP PUSH1 0xA DUP2 GT ISZERO JUMPDEST PUSH2 0x685 JUMPI PUSH1 0x40 MLOAD PUSH3 0x461BCD PUSH1 0xE5 SHL DUP2 MSTORE PUSH1 0x20 PUSH1 0x4 DUP3 ADD MSTORE PUSH1 0x1C PUSH1 0x24 DUP3 ADD MSTORE PUSH32 0x506C6179657273206D757374206265206265747765656E20322D313000000000 PUSH1 0x44 DUP3 ADD MSTORE PUSH1 0x64 ADD PUSH2 0x2F7 JUMP JUMPDEST PUSH1 0x0 CALLVALUE GT PUSH2 0x6C7 JUMPI PUSH1 0x40 MLOAD PUSH3 0x461BCD PUSH1 0xE5 SHL DUP2 MSTORE PUSH1 0x20 PUSH1 0x4 DUP3 ADD MSTORE PUSH1 0xF PUSH1 0x24 DUP3 ADD MSTORE PUSH15 0x109D5E4B5A5B881C995C5D5A5C9959 PUSH1 0x8A SHL PUSH1 0x44 DUP3 ADD MSTORE PUSH1 0x64 ADD PUSH2 0x2F7 JUMP JUMPDEST PUSH1 0x0 DUP1 SLOAD DUP1 DUP3 MSTORE PUSH1 0x1 PUSH1 0x20 DUP2 DUP2 MSTORE PUSH1 0x40 DUP1 DUP6 KECCAK256 SWAP4 DUP5 SSTORE DUP4 DUP4 ADD DUP1 SLOAD CALLER PUSH1 0x1 PUSH1 0x1 PUSH1 0xA0 SHL SUB NOT SWAP2 DUP3 AND DUP2 OR SWAP1 SWAP3 SSTORE CALLVALUE PUSH1 0x2 DUP1 DUP9 ADD DUP3 SWAP1 SSTORE PUSH1 0x3 DUP9 ADD DUP11 SWAP1 SSTORE PUSH1 0x5 DUP9 ADD DUP1 SLOAD PUSH1 0xFF NOT SWAP1 DUP2 AND DUP10 OR SWAP1 SWAP2 SSTORE PUSH1 0x6 DUP10 ADD DUP4 SWAP1 SSTORE PUSH1 0x4 DUP10 ADD DUP1 SLOAD DUP1 DUP11 ADD DUP3 SSTORE SWAP1 DUP12 MSTORE DUP8 DUP12 KECCAK256 ADD DUP1 SLOAD SWAP1 SWAP5 AND DUP6 OR SWAP1 SWAP4 SSTORE DUP9 SLOAD DUP10 MSTORE DUP6 MSTORE DUP4 DUP9 KECCAK256 DUP4 DUP10 MSTORE DUP6 MSTORE DUP4 DUP9 KECCAK256 DUP1 SLOAD SWAP1 SWAP3 AND SWAP1 SWAP6 OR SWAP1 SSTORE SWAP5 SLOAD DUP2 MLOAD SWAP4 DUP5 MSTORE SWAP2 DUP4 ADD DUP7 SWAP1 MSTORE SWAP3 SWAP4 SWAP3 SWAP1 SWAP2 PUSH32 0xFD9273D4455F230CB82EA076DF3E088329262DF8F16C0FCC76291B90292FA952 SWAP2 ADD PUSH1 0x40 MLOAD DUP1 SWAP2 SUB SWAP1 LOG3 PUSH1 0x0 DUP1 SLOAD PUSH1 0x40 MLOAD CALLER SWAP3 PUSH32 0x87969BC7FAF902221A147B95CEBA76E011C5EFB0339A0A8EE7A2BB82D9CFBBD6 SWAP2 LOG3 PUSH1 0x0 DUP1 SLOAD SWAP1 DUP1 PUSH2 0x7CB DUP4 PUSH2 0xB5F JUMP JUMPDEST SWAP2 SWAP1 POP SSTORE POP POP POP JUMP JUMPDEST PUSH1 0x0 DUP2 DUP2 MSTORE PUSH1 0x1 PUSH1 0x20 DUP2 DUP2 MSTORE PUSH1 0x40 DUP1 DUP5 KECCAK256 DUP1 SLOAD SWAP4 DUP2 ADD SLOAD PUSH1 0x2 DUP3 ADD SLOAD PUSH1 0x3 DUP4 ADD SLOAD PUSH1 0x5 DUP5 ADD SLOAD PUSH1 0x6 DUP6 ADD SLOAD PUSH1 0x4 DUP7 ADD DUP1 SLOAD DUP9 MLOAD DUP2 DUP12 MUL DUP2 ADD DUP12 ADD SWAP1 SWAP10 MSTORE DUP1 DUP10 MSTORE DUP12 SWAP11 DUP12 SWAP11 DUP12 SWAP11 PUSH1 0x60 SWAP11 DUP13 SWAP11 DUP12 SWAP11 DUP12 SWAP11 SWAP3 SWAP10 SWAP6 SWAP9 PUSH1 0x1 PUSH1 0x1 PUSH1 0xA0 SHL SUB SWAP3 DUP4 AND SWAP9 SWAP2 SWAP8 SWAP4 SWAP7 SWAP2 SWAP6 PUSH1 0xFF DUP4 AND SWAP6 PUSH2 0x100 SWAP1 SWAP4 DIV SWAP1 SWAP4 AND SWAP4 SWAP1 SWAP3 DUP7 SWAP2 SWAP1 DUP4 ADD DUP3 DUP3 DUP1 ISZERO PUSH2 0x886 JUMPI PUSH1 0x20 MUL DUP3 ADD SWAP2 SWAP1 PUSH1 0x0 MSTORE PUSH1 0x20 PUSH1 0x0 KECCAK256 SWAP1 JUMPDEST DUP2 SLOAD PUSH1 0x1 PUSH1 0x1 PUSH1 0xA0 SHL SUB AND DUP2 MSTORE PUSH1 0x1 SWAP1 SWAP2 ADD SWAP1 PUSH1 0x20 ADD DUP1 DUP4 GT PUSH2 0x868 JUMPI JUMPDEST POP POP POP POP POP SWAP4 POP SWAP9 POP SWAP9 POP SWAP9 POP SWAP9 POP SWAP9 POP SWAP9 POP SWAP9 POP SWAP9 POP POP SWAP2 SWAP4 SWAP6 SWAP8 POP SWAP2 SWAP4 SWAP6 SWAP8 JUMP JUMPDEST PUSH1 0x0 DUP2 DUP2 MSTORE PUSH1 0x1 PUSH1 0x20 SWAP1 DUP2 MSTORE PUSH1 0x40 DUP1 DUP4 KECCAK256 PUSH1 0x4 DUP2 ADD DUP1 SLOAD SWAP3 MLOAD SWAP2 SWAP5 SWAP4 PUSH2 0x8D7 SWAP3 TIMESTAMP SWAP3 PREVRANDAO SWAP3 SWAP1 SWAP2 DUP10 SWAP2 ADD PUSH2 0xB78 JUMP JUMPDEST PUSH1 0x40 MLOAD PUSH1 0x20 DUP2 DUP4 SUB SUB DUP2 MSTORE SWAP1 PUSH1 0x40 MSTORE DUP1 MLOAD SWAP1 PUSH1 0x20 ADD KECCAK256 PUSH1 0x0 SHR PUSH2 0x8FA SWAP2 SWAP1 PUSH2 0xBCC JUMP JUMPDEST SWAP1 POP PUSH1 0x0 DUP3 PUSH1 0x4 ADD DUP3 DUP2 SLOAD DUP2 LT PUSH2 0x913 JUMPI PUSH2 0x913 PUSH2 0xBEE JUMP JUMPDEST PUSH1 0x0 SWAP2 DUP3 MSTORE PUSH1 0x20 DUP3 KECCAK256 ADD SLOAD PUSH1 0x5 DUP6 ADD DUP1 SLOAD PUSH1 0x1 PUSH1 0x1 PUSH1 0xA8 SHL SUB NOT AND PUSH2 0x100 PUSH1 0x1 PUSH1 0x1 PUSH1 0xA0 SHL SUB SWAP1 SWAP4 AND SWAP3 DUP4 MUL PUSH1 0xFF NOT AND OR SWAP1 SSTORE PUSH1 0x6 DUP6 ADD SLOAD PUSH1 0x40 MLOAD SWAP2 SWAP4 POP SWAP2 SWAP1 DUP4 SWAP1 DUP4 SWAP1 PUSH1 0x0 PUSH1 0x40 MLOAD DUP1 DUP4 SUB DUP2 DUP6 DUP8 GAS CALL SWAP3 POP POP POP RETURNDATASIZE DUP1 PUSH1 0x0 DUP2 EQ PUSH2 0x994 JUMPI PUSH1 0x40 MLOAD SWAP2 POP PUSH1 0x1F NOT PUSH1 0x3F RETURNDATASIZE ADD AND DUP3 ADD PUSH1 0x40 MSTORE RETURNDATASIZE DUP3 MSTORE RETURNDATASIZE PUSH1 0x0 PUSH1 0x20 DUP5 ADD RETURNDATACOPY PUSH2 0x999 JUMP JUMPDEST PUSH1 0x60 SWAP2 POP JUMPDEST POP POP SWAP1 POP DUP1 PUSH2 0x9E2 JUMPI PUSH1 0x40 MLOAD PUSH3 0x461BCD PUSH1 0xE5 SHL DUP2 MSTORE PUSH1 0x20 PUSH1 0x4 DUP3 ADD MSTORE PUSH1 0x15 PUSH1 0x24 DUP3 ADD MSTORE PUSH21 0x141C9A5E99481D1C985B9CD9995C8819985A5B1959 PUSH1 0x5A SHL PUSH1 0x44 DUP3 ADD MSTORE PUSH1 0x64 ADD PUSH2 0x2F7 JUMP JUMPDEST DUP3 PUSH1 0x1 PUSH1 0x1 PUSH1 0xA0 SHL SUB AND DUP7 PUSH32 0x7ED5FACE07AFB2B0E99DF53523951350D2A3D4F5D105A0DD2110703EFE399537 DUP5 PUSH1 0x40 MLOAD PUSH2 0xA1E SWAP2 DUP2 MSTORE PUSH1 0x20 ADD SWAP1 JUMP JUMPDEST PUSH1 0x40 MLOAD DUP1 SWAP2 SUB SWAP1 LOG3 POP POP POP POP POP POP JUMP JUMPDEST PUSH1 0x0 DUP1 PUSH1 0x40 DUP4 DUP6 SUB SLT ISZERO PUSH2 0xA41 JUMPI PUSH1 0x0 DUP1 REVERT JUMPDEST DUP3 CALLDATALOAD SWAP2 POP PUSH1 0x20 DUP4 ADD CALLDATALOAD PUSH1 0x1 PUSH1 0x1 PUSH1 0xA0 SHL SUB DUP2 AND DUP2 EQ PUSH2 0xA5F JUMPI PUSH1 0x0 DUP1 REVERT JUMPDEST DUP1 SWAP2 POP POP SWAP3 POP SWAP3 SWAP1 POP JUMP JUMPDEST PUSH1 0x0 PUSH1 0x20 DUP3 DUP5 SUB SLT ISZERO PUSH2 0xA7C JUMPI PUSH1 0x0 DUP1 REVERT JUMPDEST POP CALLDATALOAD SWAP2 SWAP1 POP JUMP JUMPDEST PUSH1 0x0 DUP2 MLOAD DUP1 DUP5 MSTORE PUSH1 0x20 DUP1 DUP6 ADD SWAP5 POP DUP1 DUP5 ADD PUSH1 0x0 JUMPDEST DUP4 DUP2 LT ISZERO PUSH2 0xABC JUMPI DUP2 MLOAD PUSH1 0x1 PUSH1 0x1 PUSH1 0xA0 SHL SUB AND DUP8 MSTORE SWAP6 DUP3 ADD SWAP6 SWAP1 DUP3 ADD SWAP1 PUSH1 0x1 ADD PUSH2 0xA97 JUMP JUMPDEST POP SWAP5 SWAP6 SWAP5 POP POP POP POP POP JUMP JUMPDEST PUSH1 0x20 DUP2 MSTORE PUSH1 0x0 PUSH2 0xADA PUSH1 0x20 DUP4 ADD DUP5 PUSH2 0xA83 JUMP JUMPDEST SWAP4 SWAP3 POP POP POP JUMP JUMPDEST PUSH1 0x0 PUSH2 0x100 DUP11 DUP4 MSTORE PUSH1 0x1 DUP1 PUSH1 0xA0 SHL SUB DUP1 DUP12 AND PUSH1 0x20 DUP6 ADD MSTORE DUP10 PUSH1 0x40 DUP6 ADD MSTORE DUP9 PUSH1 0x60 DUP6 ADD MSTORE DUP2 PUSH1 0x80 DUP6 ADD MSTORE PUSH2 0xB16 DUP3 DUP6 ADD DUP10 PUSH2 0xA83 JUMP JUMPDEST SWAP7 ISZERO ISZERO PUSH1 0xA0 DUP6 ADD MSTORE SWAP5 SWAP1 SWAP5 AND PUSH1 0xC0 DUP4 ADD MSTORE POP PUSH1 0xE0 ADD MSTORE POP SWAP6 SWAP5 POP POP POP POP POP JUMP JUMPDEST PUSH4 0x4E487B71 PUSH1 0xE0 SHL PUSH1 0x0 MSTORE PUSH1 0x11 PUSH1 0x4 MSTORE PUSH1 0x24 PUSH1 0x0 REVERT JUMPDEST DUP1 DUP3 ADD DUP1 DUP3 GT ISZERO PUSH2 0x2A1 JUMPI PUSH2 0x2A1 PUSH2 0xB36 JUMP JUMPDEST PUSH1 0x0 PUSH1 0x1 DUP3 ADD PUSH2 0xB71 JUMPI PUSH2 0xB71 PUSH2 0xB36 JUMP JUMPDEST POP PUSH1 0x1 ADD SWAP1 JUMP JUMPDEST DUP5 DUP2 MSTORE PUSH1 0x0 PUSH1 0x20 DUP6 DUP2 DUP5 ADD MSTORE PUSH1 0x40 DUP4 ADD DUP6 SLOAD DUP7 PUSH1 0x0 MSTORE DUP3 PUSH1 0x0 KECCAK256 PUSH1 0x0 JUMPDEST DUP3 DUP2 LT ISZERO PUSH2 0xBBA JUMPI DUP2 SLOAD PUSH1 0x1 PUSH1 0x1 PUSH1 0xA0 SHL SUB AND DUP5 MSTORE SWAP3 DUP5 ADD SWAP3 PUSH1 0x1 SWAP2 DUP3 ADD SWAP2 ADD PUSH2 0xB95 JUMP JUMPDEST POP POP POP SWAP4 DUP5 MSTORE SWAP1 SWAP3 ADD SWAP6 SWAP5 POP POP POP POP POP JUMP JUMPDEST PUSH1 0x0 DUP3 PUSH2 0xBE9 JUMPI PUSH4 0x4E487B71 PUSH1 0xE0 SHL PUSH1 0x0 MSTORE PUSH1 0x12 PUSH1 0x4 MSTORE PUSH1 0x24 PUSH1 0x0 REVERT JUMPDEST POP MOD SWAP1 JUMP JUMPDEST PUSH4 0x4E487B71 PUSH1 0xE0 SHL PUSH1 0x0 MSTORE PUSH1 0x32 PUSH1 0x4 MSTORE PUSH1 0x24 PUSH1 0x0 REVERT INVALID LOG2 PUSH5 0x6970667358 0x22 SLT KECCAK256 SWAP15 SWAP3 0xD2 PUSH29 0x8723AF21177222D3858899ADAD6FE4B78112F26DC472753C30A1AD3A64 PUSH20 0x6F6C634300081400330000000000000000000000 "},"methodIdentifiers":{"createRing(uint256)":"ba126bad","endRing(uint256)":"a41e3ac1","getRing(uint256)":"c08a5dd5","getRingPlayers(uint256)":"7e639ceb","hasJoined(uint256,address)":"68194719","joinRing(uint256)":"630bb7d3","nextRingId()":"00df2085","rings(uint256)":"fb29885d","userHasJoined(uint256,address)":"1ec31417"}}}}}