{
  "_format": "hh-sol-artifact-1",
  "contractName": "RingsEnhanced",
  "sourceName": "contracts/RingsEnhanced.sol",
  "abi": [
    {
      "anonymous": false,
      "inputs": [
        {
          "indexed": true,
          "internalType": "uint256",
          "name": "ringId",
          "type": "uint256"
        },
        {
          "indexed": true,
          "internalType": "address",
          "name": "player",
          "type": "address"
        }
      ],
      "name": "PlayerJoined",
      "type": "event"
    },
    {
      "anonymous": false,
      "inputs": [
        {
          "indexed": true,
          "internalType": "uint256",
          "name": "ringId",
          "type": "uint256"
        },
        {
          "indexed": true,
          "internalType": "address",
          "name": "creator",
          "type": "address"
        },
        {
          "indexed": false,
          "internalType": "uint256",
          "name": "buyIn",
          "type": "uint256"
        },
        {
          "indexed": false,
          "internalType": "uint256",
          "name": "maxPlayers",
          "type": "uint256"
        }
      ],
      "name": "RingCreated",
      "type": "event"
    },
    {
      "anonymous": false,
      "inputs": [
        {
          "indexed": true,
          "internalType": "uint256",
          "name": "ringId",
          "type": "uint256"
        },
        {
          "indexed": true,
          "internalType": "address",
          "name": "creator",
          "type": "address"
        }
      ],
      "name": "RingEnded",
      "type": "event"
    },
    {
      "anonymous": false,
      "inputs": [
        {
          "indexed": true,
          "internalType": "uint256",
          "name": "ringId",
          "type": "uint256"
        },
        {
          "indexed": true,
          "internalType": "address",
          "name": "winner",
          "type": "address"
        },
        {
          "indexed": false,
          "internalType": "uint256",
          "name": "prize",
          "type": "uint256"
        }
      ],
      "name": "WinnerDeclared",
      "type": "event"
    },
    {
      "inputs": [
        {
          "internalType": "uint256",
          "name": "_maxPlayers",
          "type": "uint256"
        }
      ],
      "name": "createRing",
      "outputs": [],
      "stateMutability": "payable",
      "type": "function"
    },
    {
      "inputs": [
        {
          "internalType": "uint256",
          "name": "_ringId",
          "type": "uint256"
        }
      ],
      "name": "endRing",
      "outputs": [],
      "stateMutability": "nonpayable",
      "type": "function"
    },
    {
      "inputs": [
        {
          "internalType": "uint256",
          "name": "_ringId",
          "type": "uint256"
        }
      ],
      "name": "getRing",
      "outputs": [
        {
          "internalType": "uint256",
          "name": "id",
          "type": "uint256"
        },
        {
          "internalType": "address",
          "name": "creator",
          "type": "address"
        },
        {
          "internalType": "uint256",
          "name": "buyIn",
          "type": "uint256"
        },
        {
          "internalType": "uint256",
          "name": "maxPlayers",
          "type": "uint256"
        },
        {
          "internalType": "address[]",
          "name": "players",
          "type": "address[]"
        },
        {
          "internalType": "bool",
          "name": "isActive",
          "type": "bool"
        },
        {
          "internalType": "address",
          "name": "winner",
          "type": "address"
        },
        {
          "internalType": "uint256",
          "name": "totalPot",
          "type": "uint256"
        }
      ],
      "stateMutability": "view",
      "type": "function"
    },
    {
      "inputs": [
        {
          "internalType": "uint256",
          "name": "_ringId",
          "type": "uint256"
        }
      ],
      "name": "getRingPlayers",
      "outputs": [
        {
          "internalType": "address[]",
          "name": "",
          "type": "address[]"
        }
      ],
      "stateMutability": "view",
      "type": "function"
    },
    {
      "inputs": [
        {
          "internalType": "uint256",
          "name": "",
          "type": "uint256"
        },
        {
          "internalType": "address",
          "name": "",
          "type": "address"
        }
      ],
      "name": "hasJoined",
      "outputs": [
        {
          "internalType": "bool",
          "name": "",
          "type": "bool"
        }
      ],
      "stateMutability": "view",
      "type": "function"
    },
    {
      "inputs": [
        {
          "internalType": "uint256",
          "name": "_ringId",
          "type": "uint256"
        }
      ],
      "name": "joinRing",
      "outputs": [],
      "stateMutability": "payable",
      "type": "function"
    },
    {
      "inputs": [],
      "name": "nextRingId",
      "outputs": [
        {
          "internalType": "uint256",
          "name": "",
          "type": "uint256"
        }
      ],
      "stateMutability": "view",
      "type": "function"
    },
    {
      "inputs": [
        {
          "internalType": "uint256",
          "name": "",
          "type": "uint256"
        }
      ],
      "name": "rings",
      "outputs": [
        {
          "internalType": "uint256",
          "name": "id",
          "type": "uint256"
        },
        {
          "internalType": "address",
          "name": "creator",
          "type": "address"
        },
        {
          "internalType": "uint256",
          "name": "buyIn",
          "type": "uint256"
        },
        {
          "internalType": "uint256",
          "name": "maxPlayers",
          "type": "uint256"
        },
        {
          "internalType": "bool",
          "name": "isActive",
          "type": "bool"
        },
        {
          "internalType": "address",
          "name": "winner",
          "type": "address"
        },
        {
          "internalType": "uint256",
          "name": "totalPot",
          "type": "uint256"
        }
      ],
      "stateMutability": "view",
      "type": "function"
    },
    {
      "inputs": [
        {
          "internalType": "uint256",
          "name": "_ringId",
          "type": "uint256"
        },
        {
          "internalType": "address",
          "name": "_user",
          "type": "address"
        }
      ],
      "name": "userHasJoined",
      "outputs": [
        {
          "internalType": "bool",
          "name": "",
          "type": "bool"
        }
      ],
      "stateMutability": "view",
      "type": "function"
    },
    {
      "stateMutability": "payable",
      "type": "receive"
    }
  ],
  "bytecode": "0x608060405234801561001057600080fd5b50610c3a806100206000396000f3fe6080604052600436106100895760003560e01c80637e639ceb116100595780637e639ceb1461013e578063a41e3ac11461016b578063ba126bad1461018b578063c08a5dd51461019e578063fb29885d146101d257600080fd5b8062df2085146100955780631ec31417146100be578063630bb7d3146100ee578063681947191461010357600080fd5b3661009057005b600080fd5b3480156100a157600080fd5b506100ab60005481565b6040519081526020015b60405180910390f35b3480156100ca57600080fd5b506100de6100d9366004610a2e565b61027a565b60405190151581526020016100b5565b6101016100fc366004610a6a565b6102a7565b005b34801561010f57600080fd5b506100de61011e366004610a2e565b600260209081526000928352604080842090915290825290205460ff1681565b34801561014a57600080fd5b5061015e610159366004610a6a565b610482565b6040516100b59190610ac7565b34801561017757600080fd5b50610101610186366004610a6a565b6104f1565b610101610199366004610a6a565b610627565b3480156101aa57600080fd5b506101be6101b9366004610a6a565b6107d4565b6040516100b5989796959493929190610ae1565b3480156101de57600080fd5b506102396101ed366004610a6a565b60016020819052600091825260409091208054918101546002820154600383015460058401546006909401546001600160a01b03938416949293919260ff811692610100909104169087565b604080519788526001600160a01b03968716602089015287019490945260608601929092521515608085015290911660a083015260c082015260e0016100b5565b60008281526002602090815260408083206001600160a01b038516845290915290205460ff165b92915050565b6000818152600160205260409020600581015460ff166103005760405162461bcd60e51b815260206004820152600f60248201526e52696e67206e6f742061637469766560881b60448201526064015b60405180910390fd5b806002015434146103535760405162461bcd60e51b815260206004820152601760248201527f496e636f7272656374206275792d696e20616d6f756e7400000000000000000060448201526064016102f7565b60038101546004820154106103965760405162461bcd60e51b8152602060048201526009602482015268149a5b99c8199d5b1b60ba1b60448201526064016102f7565b600082815260026020908152604080832033845290915290205460ff16156103f15760405162461bcd60e51b815260206004820152600e60248201526d105b1c9958591e481a9bda5b995960921b60448201526064016102f7565b6004810180546001810182556000918252602082200180546001600160a01b0319163317905560068201805434929061042b908490610b4c565b90915550506000828152600260209081526040808320338085529252808320805460ff1916600117905551909184917f87969bc7faf902221a147b95ceba76e011c5efb0339a0a8ee7a2bb82d9cfbbd69190a35050565b6000818152600160209081526040918290206004018054835181840281018401909452808452606093928301828280156104e557602002820191906000526020600020905b81546001600160a01b031681526001909101906020018083116104c7575b50505050509050919050565b6000818152600160205260409020600581015460ff166105455760405162461bcd60e51b815260206004820152600f60248201526e52696e67206e6f742061637469766560881b60448201526064016102f7565b60018101546001600160a01b031633146105985760405162461bcd60e51b815260206004820152601460248201527313db9b1e4818dc99585d1bdc8818d85b88195b9960621b60448201526064016102f7565b6004810154600211156105ed5760405162461bcd60e51b815260206004820152601760248201527f4e656564206174206c65617374203220706c617965727300000000000000000060448201526064016102f7565b6105f6826108a9565b604051339083907f983dfeea14503670ff3224a321e526575722f9a2a3755ecd963a43260c94b4c190600090a35050565b600281101580156106395750600a8111155b6106855760405162461bcd60e51b815260206004820152601c60248201527f506c6179657273206d757374206265206265747765656e20322d31300000000060448201526064016102f7565b600034116106c75760405162461bcd60e51b815260206004820152600f60248201526e109d5e4b5a5b881c995c5d5a5c9959608a1b60448201526064016102f7565b600080548082526001602081815260408085209384558383018054336001600160a01b03199182168117909255346002808801829055600388018a905560058801805460ff19908116891790915560068901839055600489018054808a018255908b52878b2001805490941685179093558854895285528388208389528552838820805490921690951790559454815193845291830186905292939290917ffd9273d4455f230cb82ea076df3e088329262df8f16c0fcc76291b90292fa952910160405180910390a36000805460405133927f87969bc7faf902221a147b95ceba76e011c5efb0339a0a8ee7a2bb82d9cfbbd691a36000805490806107cb83610b5f565b91905055505050565b600081815260016020818152604080842080549381015460028201546003830154600584015460068501546004860180548851818b0281018b019099528089528b9a8b9a8b9a60609a8c9a8b9a8b9a929995986001600160a01b039283169891979396919560ff83169561010090930490931693909286919083018282801561088657602002820191906000526020600020905b81546001600160a01b03168152600190910190602001808311610868575b505050505093509850985098509850985098509850985050919395975091939597565b600081815260016020908152604080832060048101805492519194936108d792429244929091899101610b78565b6040516020818303038152906040528051906020012060001c6108fa9190610bcc565b9050600082600401828154811061091357610913610bee565b60009182526020822001546005850180546001600160a81b0319166101006001600160a01b0390931692830260ff1916179055600685015460405191935091908390839060006040518083038185875af1925050503d8060008114610994576040519150601f19603f3d011682016040523d82523d6000602084013e610999565b606091505b50509050806109e25760405162461bcd60e51b8152602060048201526015602482015274141c9a5e99481d1c985b9cd9995c8819985a5b1959605a1b60448201526064016102f7565b826001600160a01b0316867f7ed5face07afb2b0e99df53523951350d2a3d4f5d105a0dd2110703efe39953784604051610a1e91815260200190565b60405180910390a3505050505050565b60008060408385031215610a4157600080fd5b8235915060208301356001600160a01b0381168114610a5f57600080fd5b809150509250929050565b600060208284031215610a7c57600080fd5b5035919050565b600081518084526020808501945080840160005b83811015610abc5781516001600160a01b031687529582019590820190600101610a97565b509495945050505050565b602081526000610ada6020830184610a83565b9392505050565b60006101008a835260018060a01b03808b166020850152896040850152886060850152816080850152610b1682850189610a83565b96151560a08501529490941660c08301525060e001525095945050505050565b634e487b7160e01b600052601160045260246000fd5b808201808211156102a1576102a1610b36565b600060018201610b7157610b71610b36565b5060010190565b848152600060208581840152604083018554866000528260002060005b82811015610bba5781546001600160a01b031684529284019260019182019101610b95565b50505093845290920195945050505050565b600082610be957634e487b7160e01b600052601260045260246000fd5b500690565b634e487b7160e01b600052603260045260246000fdfea26469706673582212209e92d27c8723af21177222d3858899adad6fe4b78112f26dc472753c30a1ad3a64736f6c63430008140033",
  "linkReferences": {},
  "deployedLinkReferences": {}
}